{
  "_format": "hh-sol-artifact-1",
  "contractName": "Message",
  "sourceName": "contracts/Message.sol",
  "abi": [
    {
      "inputs": [
        {
          "internalType": "address",
          "name": "_sendVerifier",
          "type": "address"
        },
        {
          "internalType": "address",
          "name": "_revealVerifier",
          "type": "address"
        }
      ],
      "stateMutability": "nonpayable",
      "type": "constructor"
    },
    {
      "anonymous": false,
      "inputs": [
        {
          "indexed": true,
          "internalType": "uint256",
          "name": "hash",
          "type": "uint256"
        },
        {
          "indexed": false,
          "internalType": "string",
          "name": "msgheader",
          "type": "string"
        },
        {
          "indexed": false,
          "internalType": "bool",
          "name": "revealed",
          "type": "bool"
        }
      ],
      "name": "Revealed",
      "type": "event"
    },
    {
      "anonymous": false,
      "inputs": [
        {
          "indexed": true,
          "internalType": "uint256",
          "name": "hash",
          "type": "uint256"
        },
        {
          "indexed": false,
          "internalType": "string",
          "name": "msgheader",
          "type": "string"
        },
        {
          "indexed": false,
          "internalType": "bool",
          "name": "revealed",
          "type": "bool"
        }
      ],
      "name": "Send",
      "type": "event"
    },
    {
      "inputs": [],
      "name": "getMessageStruct",
      "outputs": [
        {
          "internalType": "string[]",
          "name": "",
          "type": "string[]"
        },
        {
          "internalType": "string[]",
          "name": "",
          "type": "string[]"
        },
        {
          "internalType": "bool[]",
          "name": "",
          "type": "bool[]"
        }
      ],
      "stateMutability": "view",
      "type": "function"
    },
    {
      "inputs": [
        {
          "internalType": "uint256",
          "name": "",
          "type": "uint256"
        }
      ],
      "name": "messages",
      "outputs": [
        {
          "internalType": "string",
          "name": "msgheader",
          "type": "string"
        },
        {
          "internalType": "string",
          "name": "msgbody",
          "type": "string"
        },
        {
          "internalType": "bool",
          "name": "isrevealed",
          "type": "bool"
        },
        {
          "internalType": "uint256",
          "name": "msghash",
          "type": "uint256"
        }
      ],
      "stateMutability": "view",
      "type": "function"
    },
    {
      "inputs": [],
      "name": "msgCount",
      "outputs": [
        {
          "internalType": "uint256",
          "name": "",
          "type": "uint256"
        }
      ],
      "stateMutability": "view",
      "type": "function"
    },
    {
      "inputs": [
        {
          "internalType": "string",
          "name": "_msgbody",
          "type": "string"
        },
        {
          "internalType": "uint256[2]",
          "name": "_a",
          "type": "uint256[2]"
        },
        {
          "internalType": "uint256[2][2]",
          "name": "_b",
          "type": "uint256[2][2]"
        },
        {
          "internalType": "uint256[2]",
          "name": "_c",
          "type": "uint256[2]"
        },
        {
          "internalType": "uint256[2]",
          "name": "_input",
          "type": "uint256[2]"
        }
      ],
      "name": "revealMessage",
      "outputs": [],
      "stateMutability": "nonpayable",
      "type": "function"
    },
    {
      "inputs": [
        {
          "internalType": "string",
          "name": "_msgheader",
          "type": "string"
        },
        {
          "internalType": "uint256[2]",
          "name": "_a",
          "type": "uint256[2]"
        },
        {
          "internalType": "uint256[2][2]",
          "name": "_b",
          "type": "uint256[2][2]"
        },
        {
          "internalType": "uint256[2]",
          "name": "_c",
          "type": "uint256[2]"
        },
        {
          "internalType": "uint256[2]",
          "name": "_input",
          "type": "uint256[2]"
        }
      ],
      "name": "sendMessage",
      "outputs": [],
      "stateMutability": "nonpayable",
      "type": "function"
    }
  ],
  "bytecode": "0x608060405260006002553480156200001657600080fd5b50604051620019463803806200194683398181016040528101906200003c9190620000dc565b816000806101000a81548173ffffffffffffffffffffffffffffffffffffffff021916908373ffffffffffffffffffffffffffffffffffffffff16021790555080600160006101000a81548173ffffffffffffffffffffffffffffffffffffffff021916908373ffffffffffffffffffffffffffffffffffffffff16021790555050506200016b565b600081519050620000d68162000151565b92915050565b60008060408385031215620000f057600080fd5b60006200010085828601620000c5565b92505060206200011385828601620000c5565b9150509250929050565b60006200012a8262000131565b9050919050565b600073ffffffffffffffffffffffffffffffffffffffff82169050919050565b6200015c816200011d565b81146200016857600080fd5b50565b6117cb806200017b6000396000f3fe608060405234801561001057600080fd5b50600436106100575760003560e01c8063033a1dc71461005c5780630d80fefd1461007c5780638f1a2810146100af578063add41170146100cd578063e1a0fbee146100e9575b600080fd5b610064610105565b60405161007393929190611217565b60405180910390f35b61009660048036038101906100919190610e46565b6104f1565b6040516100a694939291906112da565b60405180910390f35b6100b761064e565b6040516100c4919061139d565b60405180910390f35b6100e760048036038101906100e29190610db5565b610654565b005b61010360048036038101906100fe9190610db5565b610893565b005b6060806060600060025467ffffffffffffffff81111561014e577f4e487b7100000000000000000000000000000000000000000000000000000000600052604160045260246000fd5b60405190808252806020026020018201604052801561018157816020015b606081526020019060019003908161016c5790505b509050600060025467ffffffffffffffff8111156101c8577f4e487b7100000000000000000000000000000000000000000000000000000000600052604160045260246000fd5b6040519080825280602002602001820160405280156101fb57816020015b60608152602001906001900390816101e65790505b509050600060025467ffffffffffffffff811115610242577f4e487b7100000000000000000000000000000000000000000000000000000000600052604160045260246000fd5b6040519080825280602002602001820160405280156102705781602001602082028036833780820191505090505b50905060005b6002548110156104df576000600382815481106102bc577f4e487b7100000000000000000000000000000000000000000000000000000000600052603260045260246000fd5b906000526020600020906004020190508060000180546102db906115cb565b80601f0160208091040260200160405190810160405280929190818152602001828054610307906115cb565b80156103545780601f1061032957610100808354040283529160200191610354565b820191906000526020600020905b81548152906001019060200180831161033757829003601f168201915b5050505050858381518110610392577f4e487b7100000000000000000000000000000000000000000000000000000000600052603260045260246000fd5b60200260200101819052508060010180546103ac906115cb565b80601f01602080910402602001604051908101604052809291908181526020018280546103d8906115cb565b80156104255780601f106103fa57610100808354040283529160200191610425565b820191906000526020600020905b81548152906001019060200180831161040857829003601f168201915b5050505050848381518110610463577f4e487b7100000000000000000000000000000000000000000000000000000000600052603260045260246000fd5b60200260200101819052508060020160009054906101000a900460ff168383815181106104b9577f4e487b7100000000000000000000000000000000000000000000000000000000600052603260045260246000fd5b6020026020010190151590811515815250505080806104d79061162e565b915050610276565b50828282955095509550505050909192565b6003818154811061050157600080fd5b9060005260206000209060040201600091509050806000018054610524906115cb565b80601f0160208091040260200160405190810160405280929190818152602001828054610550906115cb565b801561059d5780601f106105725761010080835404028352916020019161059d565b820191906000526020600020905b81548152906001019060200180831161058057829003601f168201915b5050505050908060010180546105b2906115cb565b80601f01602080910402602001604051908101604052809291908181526020018280546105de906115cb565b801561062b5780601f106106005761010080835404028352916020019161062b565b820191906000526020600020905b81548152906001019060200180831161060e57829003601f168201915b5050505050908060020160009054906101000a900460ff16908060030154905084565b60025481565b60008054906101000a900473ffffffffffffffffffffffffffffffffffffffff1673ffffffffffffffffffffffffffffffffffffffff1663f5c9d69e858585856040518563ffffffff1660e01b81526004016106b39493929190611263565b60206040518083038186803b1580156106cb57600080fd5b505afa1580156106df573d6000803e3d6000fd5b505050506040513d601f19601f820116820180604052508101906107039190610d8c565b610742576040517f08c379a00000000000000000000000000000000000000000000000000000000081526004016107399061135d565b60405180910390fd5b61074a610b19565b81600060028110610784577f4e487b7100000000000000000000000000000000000000000000000000000000600052603260045260246000fd5b6020020151816060018181525050858160000181905250600381908060018154018082558091505060019003906000526020600020906004020160009091909190915060008201518160000190805190602001906107e3929190610b43565b506020820151816001019080519060200190610800929190610b43565b5060408201518160020160006101000a81548160ff021916908315150217905550606082015181600301555050600260008154809291906108409061162e565b919050555080606001517f85de6294a4d949797f57205d68df2188720af37709568023693d732a75e25b17826000015183604001516040516108839291906112aa565b60405180910390a2505050505050565b600160009054906101000a900473ffffffffffffffffffffffffffffffffffffffff1673ffffffffffffffffffffffffffffffffffffffff1663f5c9d69e858585856040518563ffffffff1660e01b81526004016108f49493929190611263565b60206040518083038186803b15801561090c57600080fd5b505afa158015610920573d6000803e3d6000fd5b505050506040513d601f19601f820116820180604052508101906109449190610d8c565b610983576040517f08c379a000000000000000000000000000000000000000000000000000000000815260040161097a9061137d565b60405180910390fd5b60005b600380549050811015610b1157816001600281106109cd577f4e487b7100000000000000000000000000000000000000000000000000000000600052603260045260246000fd5b602002015160038281548110610a0c577f4e487b7100000000000000000000000000000000000000000000000000000000600052603260045260246000fd5b9060005260206000209060040201600301541415610afe57600060038281548110610a60577f4e487b7100000000000000000000000000000000000000000000000000000000600052603260045260246000fd5b9060005260206000209060040201905060018160020160006101000a81548160ff02191690831515021790555086816001019080519060200190610aa5929190610b43565b5080600301547f85de6294a4d949797f57205d68df2188720af37709568023693d732a75e25b17826001018360020160009054906101000a900460ff16604051610af092919061132d565b60405180910390a250610b11565b8080610b099061162e565b915050610986565b505050505050565b60405180608001604052806060815260200160608152602001600015158152602001600081525090565b828054610b4f906115cb565b90600052602060002090601f016020900481019282610b715760008555610bb8565b82601f10610b8a57805160ff1916838001178555610bb8565b82800160010185558215610bb8579182015b82811115610bb7578251825591602001919060010190610b9c565b5b509050610bc59190610bc9565b5090565b5b80821115610be2576000816000905550600101610bca565b5090565b6000610bf9610bf4846113dd565b6113b8565b90508082856040860282011115610c0f57600080fd5b60005b85811015610c3f5781610c258882610d11565b845260208401935060408301925050600181019050610c12565b5050509392505050565b6000610c5c610c5784611403565b6113b8565b90508082856020860282011115610c7257600080fd5b60005b85811015610ca25781610c888882610d77565b845260208401935060208301925050600181019050610c75565b5050509392505050565b6000610cbf610cba84611429565b6113b8565b905082815260208101848484011115610cd757600080fd5b610ce2848285611589565b509392505050565b600082601f830112610cfb57600080fd5b6002610d08848285610be6565b91505092915050565b600082601f830112610d2257600080fd5b6002610d2f848285610c49565b91505092915050565b600081519050610d4781611767565b92915050565b600082601f830112610d5e57600080fd5b8135610d6e848260208601610cac565b91505092915050565b600081359050610d868161177e565b92915050565b600060208284031215610d9e57600080fd5b6000610dac84828501610d38565b91505092915050565b60008060008060006101608688031215610dce57600080fd5b600086013567ffffffffffffffff811115610de857600080fd5b610df488828901610d4d565b9550506020610e0588828901610d11565b9450506060610e1688828901610cea565b93505060e0610e2788828901610d11565b925050610120610e3988828901610d11565b9150509295509295909350565b600060208284031215610e5857600080fd5b6000610e6684828501610d77565b91505092915050565b6000610e7b8383610ff5565b60408301905092915050565b6000610e9383836110a3565b60208301905092915050565b6000610eab83836110c1565b905092915050565b6000610ebf83836111f9565b60208301905092915050565b610ed4816114a3565b610ede818461150e565b9250610ee98261145a565b8060005b83811015610f1a578151610f018782610e6f565b9650610f0c836114da565b925050600181019050610eed565b505050505050565b6000610f2d826114ae565b610f378185611519565b9350610f4283611464565b8060005b83811015610f73578151610f5a8882610e87565b9750610f65836114e7565b925050600181019050610f46565b5085935050505092915050565b6000610f8b826114b9565b610f95818561152a565b935083602082028501610fa785611474565b8060005b85811015610fe35784840389528151610fc48582610e9f565b9450610fcf836114f4565b925060208a01995050600181019050610fab565b50829750879550505050505092915050565b610ffe816114c4565b611008818461153b565b925061101382611484565b8060005b8381101561104457815161102b8782610eb3565b965061103683611501565b925050600181019050611017565b505050505050565b611055816114c4565b61105f8184611546565b925061106a82611484565b8060005b8381101561109b5781516110828782610eb3565b965061108d83611501565b92505060018101905061106e565b505050505050565b6110ac81611573565b82525050565b6110bb81611573565b82525050565b60006110cc826114cf565b6110d68185611551565b93506110e6818560208601611598565b6110ef81611704565b840191505092915050565b6000611105826114cf565b61110f8185611562565b935061111f818560208601611598565b61112881611704565b840191505092915050565b60008154611140816115cb565b61114a8186611562565b945060018216600081146111655760018114611177576111aa565b60ff19831686526020860193506111aa565b6111808561148e565b60005b838110156111a257815481890152600182019150602081019050611183565b808801955050505b50505092915050565b60006111c0601583611562565b91506111cb82611715565b602082019050919050565b60006111e3601483611562565b91506111ee8261173e565b602082019050919050565b6112028161157f565b82525050565b6112118161157f565b82525050565b600060608201905081810360008301526112318186610f80565b905081810360208301526112458185610f80565b905081810360408301526112598184610f22565b9050949350505050565b600061014082019050611279600083018761104c565b6112866040830186610ecb565b61129360c083018561104c565b6112a161010083018461104c565b95945050505050565b600060408201905081810360008301526112c481856110fa565b90506112d360208301846110b2565b9392505050565b600060808201905081810360008301526112f481876110fa565b9050818103602083015261130881866110fa565b905061131760408301856110b2565b6113246060830184611208565b95945050505050565b600060408201905081810360008301526113478185611133565b905061135660208301846110b2565b9392505050565b60006020820190508181036000830152611376816111b3565b9050919050565b60006020820190508181036000830152611396816111d6565b9050919050565b60006020820190506113b26000830184611208565b92915050565b60006113c26113d3565b90506113ce82826115fd565b919050565b6000604051905090565b600067ffffffffffffffff8211156113f8576113f76116d5565b5b602082029050919050565b600067ffffffffffffffff82111561141e5761141d6116d5565b5b602082029050919050565b600067ffffffffffffffff821115611444576114436116d5565b5b61144d82611704565b9050602081019050919050565b6000819050919050565b6000819050602082019050919050565b6000819050602082019050919050565b6000819050919050565b60008190508160005260206000209050919050565b600060029050919050565b600081519050919050565b600081519050919050565b600060029050919050565b600081519050919050565b6000602082019050919050565b6000602082019050919050565b6000602082019050919050565b6000602082019050919050565b600081905092915050565b600082825260208201905092915050565b600082825260208201905092915050565b600081905092915050565b600081905092915050565b600082825260208201905092915050565b600082825260208201905092915050565b60008115159050919050565b6000819050919050565b82818337600083830152505050565b60005b838110156115b657808201518184015260208101905061159b565b838111156115c5576000848401525b50505050565b600060028204905060018216806115e357607f821691505b602082108114156115f7576115f66116a6565b5b50919050565b61160682611704565b810181811067ffffffffffffffff82111715611625576116246116d5565b5b80604052505050565b60006116398261157f565b91507fffffffffffffffffffffffffffffffffffffffffffffffffffffffffffffffff82141561166c5761166b611677565b5b600182019050919050565b7f4e487b7100000000000000000000000000000000000000000000000000000000600052601160045260246000fd5b7f4e487b7100000000000000000000000000000000000000000000000000000000600052602260045260246000fd5b7f4e487b7100000000000000000000000000000000000000000000000000000000600052604160045260246000fd5b6000601f19601f8301169050919050565b7f496e76616c6964204d6573736167652050726f6f660000000000000000000000600082015250565b7f496e76616c69642052657665616c2050726f6f66000000000000000000000000600082015250565b61177081611573565b811461177b57600080fd5b50565b6117878161157f565b811461179257600080fd5b5056fea2646970667358221220ebe36e2fdd61e74347560c72264318a02f6cb70e785e73000f64ded49363980b64736f6c63430008040033",
  "linkReferences": {},
  "deployedLinkReferences": {}
}